{
  "contractName": "Registry",
  "abi": [
    {
      "anonymous": false,
      "inputs": [
        {
          "indexed": false,
          "name": "key",
          "type": "bytes32"
        },
        {
          "indexed": false,
          "name": "value",
          "type": "bytes32"
        }
      ],
      "name": "Record",
      "type": "event"
    },
    {
      "constant": false,
      "inputs": [
        {
          "name": "_key",
          "type": "bytes32"
        },
        {
          "name": "_value",
          "type": "bytes32"
        }
      ],
      "name": "Write",
      "outputs": [],
      "payable": false,
      "stateMutability": "nonpayable",
      "type": "function"
    },
    {
      "constant": true,
      "inputs": [
        {
          "name": "_key",
          "type": "bytes32"
        }
      ],
      "name": "Read",
      "outputs": [
        {
          "name": "",
          "type": "bytes32"
        }
      ],
      "payable": false,
      "stateMutability": "view",
      "type": "function"
    }
  ],
  "bytecode": "0x608060405234801561001057600080fd5b50610154806100206000396000f30060806040526004361061004c576000357c0100000000000000000000000000000000000000000000000000000000900463ffffffff1680637149cff614610051578063f7435dee1461009e575b600080fd5b34801561005d57600080fd5b5061008060048036038101908080356000191690602001909291905050506100dd565b60405180826000191660001916815260200191505060405180910390f35b3480156100aa57600080fd5b506100db60048036038101908080356000191690602001909291908035600019169060200190929190505050610101565b005b60008060008360001916600019168152602001908152602001600020549050919050565b806000808460001916600019168152602001908152602001600020816000191690555050505600a165627a7a72305820f72849847af0d1e2bab18bb4379a0b7a212474d8c5f5ff561b29aec5703fa36a0029",
  "source": "pragma solidity ^0.4.23;\n\ncontract Registry{\n    mapping(bytes32 => bytes32) r;\n    \n    event Record(bytes32 key, bytes32 value);\n\n    function Write(bytes32 _key, bytes32 _value) public {\n        r[_key] = _value;\n    }\n\n    function Read(bytes32 _key) public view returns(bytes32) {\n        return r[_key];\n    }\n}",
  "sourcePath": "/Users/anton/i/app/contracts/Registry.sol",
  "compiler": {
    "name": "solc",
    "version": "0.4.23+commit.124ca40d.Emscripten.clang"
  },
  "schemaVersion": "2.0.0",
  "updatedAt": "2018-11-09T07:27:39.216Z"
}